{
  "contractName": "Election",
  "abi": [
    {
      "constant": true,
      "inputs": [],
      "name": "candidatesCount",
      "outputs": [
        {
          "name": "",
          "type": "uint256"
        }
      ],
      "payable": false,
      "stateMutability": "view",
      "type": "function"
    },
    {
      "constant": true,
      "inputs": [
        {
          "name": "",
          "type": "uint256"
        }
      ],
      "name": "candidates",
      "outputs": [
        {
          "name": "id",
          "type": "uint256"
        },
        {
          "name": "name",
          "type": "string"
        },
        {
          "name": "voteCount",
          "type": "uint256"
        }
      ],
      "payable": false,
      "stateMutability": "view",
      "type": "function"
    },
    {
      "constant": true,
      "inputs": [],
      "name": "votersCount",
      "outputs": [
        {
          "name": "",
          "type": "uint256"
        }
      ],
      "payable": false,
      "stateMutability": "view",
      "type": "function"
    },
    {
      "constant": true,
      "inputs": [
        {
          "name": "",
          "type": "address"
        }
      ],
      "name": "voters",
      "outputs": [
        {
          "name": "id",
          "type": "address"
        },
        {
          "name": "nationalId",
          "type": "string"
        },
        {
          "name": "votingKey",
          "type": "string"
        },
        {
          "name": "votingPass",
          "type": "string"
        },
        {
          "name": "vote",
          "type": "bool"
        }
      ],
      "payable": false,
      "stateMutability": "view",
      "type": "function"
    },
    {
      "inputs": [],
      "payable": false,
      "stateMutability": "nonpayable",
      "type": "constructor"
    },
    {
      "anonymous": false,
      "inputs": [
        {
          "indexed": true,
          "name": "_canidateId",
          "type": "uint256"
        }
      ],
      "name": "votedEvent",
      "type": "event"
    },
    {
      "constant": false,
      "inputs": [
        {
          "name": "_nationalId",
          "type": "string"
        },
        {
          "name": "_votingKey",
          "type": "string"
        },
        {
          "name": "_votingPass",
          "type": "string"
        },
        {
          "name": "_canidateId",
          "type": "uint256"
        }
      ],
      "name": "vote",
      "outputs": [],
      "payable": false,
      "stateMutability": "nonpayable",
      "type": "function"
    }
  ],
  "bytecode": "0x60806040523480156200001157600080fd5b50620000586040518060400160405280600e81526020017f4c6f616920616264616c736c616d0000000000000000000000000000000000008152506200013060201b60201c565b6200009e6040518060400160405280601181526020017f4d6f68616d656420616264616c736c616d0000000000000000000000000000008152506200013060201b60201c565b620000e46040518060400160405280600d81526020017f4d6f68616d65642041686d6564000000000000000000000000000000000000008152506200013060201b60201c565b6200012a6040518060400160405280600d81526020017f4d6f68616d65642053616c616d000000000000000000000000000000000000008152506200013060201b60201c565b6200025c565b60036000815480929190600101919050555060405180606001604052806003548152602001828152602001600081525060008060035481526020019081526020016000206000820151816000015560208201518160010190805190602001906200019c929190620001ad565b506040820151816002015590505050565b828054600181600116156101000203166002900490600052602060002090601f016020900481019282601f10620001f057805160ff191683800117855562000221565b8280016001018555821562000221579182015b828111156200022057825182559160200191906001019062000203565b5b50905062000230919062000234565b5090565b6200025991905b80821115620002555760008160009055506001016200023b565b5090565b90565b610c0c806200026c6000396000f3fe608060405234801561001057600080fd5b50600436106100575760003560e01c80632d35a8a21461005c5780633477ee2e1461007a57806398c079381461012f578063a3ec138d1461014d578063cd9dd50414610320575b600080fd5b610064610513565b6040518082815260200191505060405180910390f35b6100a66004803603602081101561009057600080fd5b8101908080359060200190929190505050610519565b6040518084815260200180602001838152602001828103825284818151815260200191508051906020019080838360005b838110156100f25780820151818401526020810190506100d7565b50505050905090810190601f16801561011f5780820380516001836020036101000a031916815260200191505b5094505050505060405180910390f35b6101376105db565b6040518082815260200191505060405180910390f35b61018f6004803603602081101561016357600080fd5b81019080803573ffffffffffffffffffffffffffffffffffffffff1690602001909291905050506105e1565b604051808673ffffffffffffffffffffffffffffffffffffffff1673ffffffffffffffffffffffffffffffffffffffff16815260200180602001806020018060200185151515158152602001848103845288818151815260200191508051906020019080838360005b838110156102135780820151818401526020810190506101f8565b50505050905090810190601f1680156102405780820380516001836020036101000a031916815260200191505b50848103835287818151815260200191508051906020019080838360005b8381101561027957808201518184015260208101905061025e565b50505050905090810190601f1680156102a65780820380516001836020036101000a031916815260200191505b50848103825286818151815260200191508051906020019080838360005b838110156102df5780820151818401526020810190506102c4565b50505050905090810190601f16801561030c5780820380516001836020036101000a031916815260200191505b509850505050505050505060405180910390f35b6105116004803603608081101561033657600080fd5b810190808035906020019064010000000081111561035357600080fd5b82018360208201111561036557600080fd5b8035906020019184600183028401116401000000008311171561038757600080fd5b91908080601f016020809104026020016040519081016040528093929190818152602001838380828437600081840152601f19601f820116905080830192505050505050509192919290803590602001906401000000008111156103ea57600080fd5b8201836020820111156103fc57600080fd5b8035906020019184600183028401116401000000008311171561041e57600080fd5b91908080601f016020809104026020016040519081016040528093929190818152602001838380828437600081840152601f19601f8201169050808301925050505050505091929192908035906020019064010000000081111561048157600080fd5b82018360208201111561049357600080fd5b803590602001918460018302840111640100000000831117156104b557600080fd5b91908080601f016020809104026020016040519081016040528093929190818152602001838380828437600081840152601f19601f8201169050808301925050505050505091929192908035906020019092919050505061080c565b005b60035481565b6000602052806000526040600020600091509050806000015490806001018054600181600116156101000203166002900480601f0160208091040260200160405190810160405280929190818152602001828054600181600116156101000203166002900480156105cb5780601f106105a0576101008083540402835291602001916105cb565b820191906000526020600020905b8154815290600101906020018083116105ae57829003601f168201915b5050505050908060020154905083565b60025481565b60016020528060005260406000206000915090508060000160009054906101000a900473ffffffffffffffffffffffffffffffffffffffff1690806001018054600181600116156101000203166002900480601f0160208091040260200160405190810160405280929190818152602001828054600181600116156101000203166002900480156106b35780601f10610688576101008083540402835291602001916106b3565b820191906000526020600020905b81548152906001019060200180831161069657829003601f168201915b505050505090806002018054600181600116156101000203166002900480601f0160208091040260200160405190810160405280929190818152602001828054600181600116156101000203166002900480156107515780601f1061072657610100808354040283529160200191610751565b820191906000526020600020905b81548152906001019060200180831161073457829003601f168201915b505050505090806003018054600181600116156101000203166002900480601f0160208091040260200160405190810160405280929190818152602001828054600181600116156101000203166002900480156107ef5780601f106107c4576101008083540402835291602001916107ef565b820191906000526020600020905b8154815290600101906020018083116107d257829003601f168201915b5050505050908060040160009054906101000a900460ff16905085565b6108178484846109df565b3373ffffffffffffffffffffffffffffffffffffffff16600160003373ffffffffffffffffffffffffffffffffffffffff1673ffffffffffffffffffffffffffffffffffffffff16815260200190815260200160002060000160009054906101000a900473ffffffffffffffffffffffffffffffffffffffff1673ffffffffffffffffffffffffffffffffffffffff16146108b157600080fd5b60011515600160003373ffffffffffffffffffffffffffffffffffffffff1673ffffffffffffffffffffffffffffffffffffffff16815260200190815260200160002060040160009054906101000a900460ff161515141561091257600080fd5b60008111801561092457506003548111155b61092d57600080fd5b60018060003373ffffffffffffffffffffffffffffffffffffffff1673ffffffffffffffffffffffffffffffffffffffff16815260200190815260200160002060040160006101000a81548160ff02191690831515021790555060008082815260200190815260200160002060020160008154809291906001019190505550807ffff3c900d938d21d0990d786e819f29b8d05c1ef587b462b939609625b684b1660405160405180910390a250505050565b60026000815480929190600101919050555060008090506040518060a001604052803373ffffffffffffffffffffffffffffffffffffffff168152602001858152602001848152602001838152602001821515815250600160003373ffffffffffffffffffffffffffffffffffffffff1673ffffffffffffffffffffffffffffffffffffffff16815260200190815260200160002060008201518160000160006101000a81548173ffffffffffffffffffffffffffffffffffffffff021916908373ffffffffffffffffffffffffffffffffffffffff1602179055506020820151816001019080519060200190610ad7929190610b3b565b506040820151816002019080519060200190610af4929190610b3b565b506060820151816003019080519060200190610b11929190610b3b565b5060808201518160040160006101000a81548160ff02191690831515021790555090505050505050565b828054600181600116156101000203166002900490600052602060002090601f016020900481019282601f10610b7c57805160ff1916838001178555610baa565b82800160010185558215610baa579182015b82811115610ba9578251825591602001919060010190610b8e565b5b509050610bb79190610bbb565b5090565b610bdd91905b80821115610bd9576000816000905550600101610bc1565b5090565b9056fea165627a7a72305820d16ebc97ea716511144303683bddabd844833940b43d09a2c1ec328435532c0d0029",
  "source": "pragma solidity ^0.5.8;\n\ncontract Election {\n\n\n\tstruct voter {\n\t\taddress id;\n\t\tstring nationalId;\n\t\tstring votingKey;\n\t\tstring votingPass;\n\t\tbool vote;\n\t}\n\n\tstruct candidate {\n\t\tuint id;\n\t\tstring name;\n\t\tuint voteCount;\n\t}\n\n\tmapping( uint => candidate) public candidates;\n\tmapping( address => voter) public voters;\n\n\tuint public votersCount;\n\tuint public candidatesCount;\n\n\tevent votedEvent(\n\t\tuint indexed _canidateId\n\t);\n\n\n\n\tconstructor() public {\n\n\t\taddCandidates('Loai abdalslam');\n\t\taddCandidates('Mohamed abdalslam');\n\t\taddCandidates('Mohamed Ahmed');\n\t\taddCandidates('Mohamed Salam');\n\n/*\n\t\taddVoters({from:'0xE2Eb60Dc54935Ae625cd58FEf42821795da09353'},'xxxx1','xxxx1','$$$$1');\n\t\taddVoters({from:'0x360B6740D7778bbA82F1D81B5eeAEacF71C023A5'},'xxxx2','xxxx2','$$$$2');\n*/\n\t}\n\n\tfunction addCandidates(string memory _name) private {\n\n\tcandidatesCount++;\n\n\tcandidates[candidatesCount] = candidate(candidatesCount,_name,0);\n\n\t}\n\n\tfunction addVoters(string memory  _nationalId,string memory _votingKey,string memory _votingPass) private {\n\tvotersCount++;\n\tbool vote = false;\n\n\tvoters[msg.sender] = voter(msg.sender,_nationalId,_votingKey,_votingPass,vote);\n\n\t}\n\n\n\tfunction vote(string memory  _nationalId,string memory _votingKey,string memory _votingPass,uint _canidateId) public {\n\t\taddVoters(_nationalId,_votingKey,_votingPass);\n\n\t\trequire(voters[msg.sender].id == msg.sender);\n\t\trequire(voters[msg.sender].vote != true);\t\n\t\trequire(_canidateId > 0 && _canidateId <= candidatesCount);\n\n\t\tvoters[msg.sender].vote = true;\n\n\t\tcandidates[_canidateId].voteCount ++;\n\n\t\temit votedEvent(_canidateId);\n\t}\n\n\n\n}",
  "sourcePath": "/home/loaii/personal/loai/blockchain/eth/contracts/Election.sol",
  "compiler": {
    "name": "solc",
    "version": "0.5.8+commit.23d335f2.Emscripten.clang"
  },
  "schemaVersion": "3.0.11",
  "updatedAt": "2019-06-30T19:44:06.702Z",
  "devdoc": {
    "methods": {}
  },
  "userdoc": {
    "methods": {}
  }
}