{
  "contractName": "VotingRoom",
  "abi": [
    {
      "constant": true,
      "inputs": [
        {
          "name": "",
          "type": "uint256"
        }
      ],
      "name": "votersArray",
      "outputs": [
        {
          "name": "voterAddr",
          "type": "address"
        },
        {
          "name": "voted",
          "type": "bool"
        }
      ],
      "payable": false,
      "stateMutability": "view",
      "type": "function"
    },
    {
      "constant": true,
      "inputs": [
        {
          "name": "",
          "type": "uint256"
        }
      ],
      "name": "roomsArray",
      "outputs": [
        {
          "name": "roomId",
          "type": "uint256"
        },
        {
          "name": "VotersCount",
          "type": "uint256"
        },
        {
          "name": "maxCan",
          "type": "uint256"
        },
        {
          "name": "candidatesCount",
          "type": "uint256"
        }
      ],
      "payable": false,
      "stateMutability": "view",
      "type": "function"
    },
    {
      "constant": true,
      "inputs": [
        {
          "name": "",
          "type": "uint256"
        }
      ],
      "name": "candidatesArray",
      "outputs": [
        {
          "name": "roomId",
          "type": "uint256"
        },
        {
          "name": "candidateAddr",
          "type": "address"
        },
        {
          "name": "candidateName",
          "type": "string"
        },
        {
          "name": "votesCount",
          "type": "uint256"
        }
      ],
      "payable": false,
      "stateMutability": "view",
      "type": "function"
    },
    {
      "constant": false,
      "inputs": [
        {
          "name": "roomId",
          "type": "uint256"
        },
        {
          "name": "voterAddr",
          "type": "address"
        },
        {
          "name": "candidateAddr",
          "type": "address"
        }
      ],
      "name": "vote",
      "outputs": [
        {
          "name": "voted",
          "type": "bool"
        }
      ],
      "payable": false,
      "stateMutability": "nonpayable",
      "type": "function"
    },
    {
      "constant": false,
      "inputs": [
        {
          "name": "roomId",
          "type": "uint256"
        },
        {
          "name": "candidateName",
          "type": "string"
        }
      ],
      "name": "add_candidate",
      "outputs": [
        {
          "name": "",
          "type": "uint256"
        }
      ],
      "payable": false,
      "stateMutability": "nonpayable",
      "type": "function"
    },
    {
      "constant": false,
      "inputs": [
        {
          "name": "maxCan",
          "type": "uint256"
        }
      ],
      "name": "add_room",
      "outputs": [],
      "payable": false,
      "stateMutability": "nonpayable",
      "type": "function"
    },
    {
      "constant": false,
      "inputs": [
        {
          "name": "roomId",
          "type": "uint256"
        }
      ],
      "name": "add_voter",
      "outputs": [],
      "payable": false,
      "stateMutability": "nonpayable",
      "type": "function"
    },
    {
      "constant": true,
      "inputs": [],
      "name": "get_room",
      "outputs": [
        {
          "name": "",
          "type": "uint256"
        }
      ],
      "payable": false,
      "stateMutability": "view",
      "type": "function"
    }
  ],
  "bytecode": "0x608060405234801561001057600080fd5b506112b2806100206000396000f3fe608060405234801561001057600080fd5b50600436106100885760003560e01c80635e5c593f1161005b5780635e5c593f1461013a57806372951a2a1461016d578063eb9d8def146101a0578063fd91e62b146101bc57610088565b8063135597fe1461008d57806351fcae96146100bd57806353da4247146100ed57806354440de81461011e575b600080fd5b6100a760048036036100a29190810190610dc9565b6101da565b6040516100b4919061107c565b60405180910390f35b6100d760048036036100d29190810190610d7a565b6103f8565b6040516100e49190610fe1565b60405180910390f35b61010760048036036101029190810190610d51565b6106b7565b604051610115929190610fb8565b60405180910390f35b61013860048036036101339190810190610d51565b610715565b005b610154600480360361014f9190810190610d51565b6108bf565b60405161016494939291906110e3565b60405180910390f35b61018760048036036101829190810190610d51565b6108fc565b6040516101979493929190611097565b60405180910390f35b6101ba60048036036101b59190810190610d51565b6109f1565b005b6101c4610ace565b6040516101d1919061107c565b60405180910390f35b60006001600284815481106101eb57fe5b906000526020600020906006020160040154036002848154811061020b57fe5b906000526020600020906006020160050154116103b757600160405180608001604052808581526020013373ffffffffffffffffffffffffffffffffffffffff1681526020018481526020016000815250908060018154018082558091505090600182039060005260206000209060040201600090919290919091506000820151816000015560208201518160010160006101000a81548173ffffffffffffffffffffffffffffffffffffffff021916908373ffffffffffffffffffffffffffffffffffffffff16021790555060408201518160020190805190602001906102f4929190610adb565b50606082015181600301555050506002838154811061030f57fe5b90600052602060002090600602016002013390806001815401808255809150509060018203906000526020600020016000909192909190916101000a81548173ffffffffffffffffffffffffffffffffffffffff021916908373ffffffffffffffffffffffffffffffffffffffff160217905550506002838154811061039157fe5b9060005260206000209060060201600501600081548092919060010191905055506103f2565b6040517f08c379a00000000000000000000000000000000000000000000000000000000081526004016103e990610ffc565b60405180910390fd5b92915050565b600080600090506002858154811061040c57fe5b90600052602060002090600602016003018054905081116106aa57600115156000828154811061043857fe5b906000526020600020906003020160020160009054906101000a900460ff161515141561049a576040517f08c379a00000000000000000000000000000000000000000000000000000000081526004016104919061105c565b60405180910390fd5b8373ffffffffffffffffffffffffffffffffffffffff16600286815481106104be57fe5b906000526020600020906006020160030182815481106104da57fe5b9060005260206000200160009054906101000a900473ffffffffffffffffffffffffffffffffffffffff1673ffffffffffffffffffffffffffffffffffffffff16141561066f5760008090505b6002868154811061053457fe5b9060005260206000209060060201600401548111610633578373ffffffffffffffffffffffffffffffffffffffff166001828154811061057057fe5b906000526020600020906004020160010160009054906101000a900473ffffffffffffffffffffffffffffffffffffffff1673ffffffffffffffffffffffffffffffffffffffff16141561062657600181815481106105cb57fe5b90600052602060002090600402016003016000815480929190600101919050555060011515600083815481106105fd57fe5b906000526020600020906003020160020160009054906101000a905050506001925050506106b0565b8080600101915050610527565b506040517f08c379a00000000000000000000000000000000000000000000000000000000081526004016106669061101c565b60405180910390fd5b6040517f08c379a00000000000000000000000000000000000000000000000000000000081526004016106a19061103c565b60405180910390fd5b50600090505b9392505050565b600081815481106106c457fe5b90600052602060002090600302016000915090508060000160009054906101000a900473ffffffffffffffffffffffffffffffffffffffff16908060020160009054906101000a900460ff16905082565b606061071f610b5b565b60405180606001604052803373ffffffffffffffffffffffffffffffffffffffff1681526020018381526020016000151581525090506000819080600181540180825580915050906001820390600052602060002090600302016000909192909190915060008201518160000160006101000a81548173ffffffffffffffffffffffffffffffffffffffff021916908373ffffffffffffffffffffffffffffffffffffffff16021790555060208201518160010190805190602001906107e6929190610b94565b5060408201518160020160006101000a81548160ff0219169083151502179055505050506002838154811061081757fe5b90600052602060002090600602016003013390806001815401808255809150509060018203906000526020600020016000909192909190916101000a81548173ffffffffffffffffffffffffffffffffffffffff021916908373ffffffffffffffffffffffffffffffffffffffff160217905550506002838154811061089957fe5b906000526020600020906006020160010160008154809291906001019190505550505050565b600281815481106108cc57fe5b90600052602060002090600602016000915090508060000154908060010154908060040154908060050154905084565b6001818154811061090957fe5b90600052602060002090600402016000915090508060000154908060010160009054906101000a900473ffffffffffffffffffffffffffffffffffffffff1690806002018054600181600116156101000203166002900480601f0160208091040260200160405190810160405280929190818152602001828054600181600116156101000203166002900480156109e15780601f106109b6576101008083540402835291602001916109e1565b820191906000526020600020905b8154815290600101906020018083116109c457829003601f168201915b5050505050908060030154905084565b60608060026040518060c0016040528060035481526020016000815260200183815260200184815260200185815260200160008152509080600181540180825580915050906001820390600052602060002090600602016000909192909190915060008201518160000155602082015181600101556040820151816002019080519060200190610a82929190610be1565b506060820151816003019080519060200190610a9f929190610be1565b506080820151816004015560a08201518160050155505050600360008154809291906001019190505550505050565b6000600280549050905090565b828054600181600116156101000203166002900490600052602060002090601f016020900481019282601f10610b1c57805160ff1916838001178555610b4a565b82800160010185558215610b4a579182015b82811115610b49578251825591602001919060010190610b2e565b5b509050610b579190610c6b565b5090565b6040518060600160405280600073ffffffffffffffffffffffffffffffffffffffff168152602001606081526020016000151581525090565b828054828255906000526020600020908101928215610bd0579160200282015b82811115610bcf578251825591602001919060010190610bb4565b5b509050610bdd9190610c6b565b5090565b828054828255906000526020600020908101928215610c5a579160200282015b82811115610c595782518260006101000a81548173ffffffffffffffffffffffffffffffffffffffff021916908373ffffffffffffffffffffffffffffffffffffffff16021790555091602001919060010190610c01565b5b509050610c679190610c90565b5090565b610c8d91905b80821115610c89576000816000905550600101610c71565b5090565b90565b610cd091905b80821115610ccc57600081816101000a81549073ffffffffffffffffffffffffffffffffffffffff021916905550600101610c96565b5090565b90565b600081359050610ce28161124a565b92915050565b600082601f830112610cf957600080fd5b8135610d0c610d0782611155565b611128565b91508082526020830160208301858383011115610d2857600080fd5b610d338382846111f7565b50505092915050565b600081359050610d4b81611261565b92915050565b600060208284031215610d6357600080fd5b6000610d7184828501610d3c565b91505092915050565b600080600060608486031215610d8f57600080fd5b6000610d9d86828701610d3c565b9350506020610dae86828701610cd3565b9250506040610dbf86828701610cd3565b9150509250925092565b60008060408385031215610ddc57600080fd5b6000610dea85828601610d3c565b925050602083013567ffffffffffffffff811115610e0757600080fd5b610e1385828601610ce8565b9150509250929050565b610e26816111af565b82525050565b610e358161119d565b82525050565b610e44816111c1565b82525050565b6000610e5582611181565b610e5f818561118c565b9350610e6f818560208601611206565b610e7881611239565b840191505092915050565b6000610e9060158361118c565b91507f536f727279202c204974732046756c6c20526f6f6d00000000000000000000006000830152602082019050919050565b6000610ed060238361118c565b91507f43616e646964617465206973206e6f742076616c696420696e2074686973207260008301527f6f6f6d00000000000000000000000000000000000000000000000000000000006020830152604082019050919050565b6000610f36601f8361118c565b91507f566f746572206973206e6f742076616c696420696e207468697320726f6f6d006000830152602082019050919050565b6000610f7660148361118c565b91507f566f74657220616c6c726561647920766f7465640000000000000000000000006000830152602082019050919050565b610fb2816111ed565b82525050565b6000604082019050610fcd6000830185610e1d565b610fda6020830184610e3b565b9392505050565b6000602082019050610ff66000830184610e3b565b92915050565b6000602082019050818103600083015261101581610e83565b9050919050565b6000602082019050818103600083015261103581610ec3565b9050919050565b6000602082019050818103600083015261105581610f29565b9050919050565b6000602082019050818103600083015261107581610f69565b9050919050565b60006020820190506110916000830184610fa9565b92915050565b60006080820190506110ac6000830187610fa9565b6110b96020830186610e2c565b81810360408301526110cb8185610e4a565b90506110da6060830184610fa9565b95945050505050565b60006080820190506110f86000830187610fa9565b6111056020830186610fa9565b6111126040830185610fa9565b61111f6060830184610fa9565b95945050505050565b6000604051905081810181811067ffffffffffffffff8211171561114b57600080fd5b8060405250919050565b600067ffffffffffffffff82111561116c57600080fd5b601f19601f8301169050602081019050919050565b600081519050919050565b600082825260208201905092915050565b60006111a8826111cd565b9050919050565b60006111ba826111cd565b9050919050565b60008115159050919050565b600073ffffffffffffffffffffffffffffffffffffffff82169050919050565b6000819050919050565b82818337600083830152505050565b60005b83811015611224578082015181840152602081019050611209565b83811115611233576000848401525b50505050565b6000601f19601f8301169050919050565b6112538161119d565b811461125e57600080fd5b50565b61126a816111ed565b811461127557600080fd5b5056fea265627a7a7230582095c4d478bd2f2830d5e95697a7a17a332bef87e8a9aa1241a2a3fbfe592fb63e6c6578706572696d656e74616cf50037",
  "source": "pragma solidity >=0.4.22 <0.6.0;\npragma experimental ABIEncoderV2;\n\ncontract VotingRoom {\n\n\n\n    struct Voter\n    {\n\n        address payable voterAddr;\n\n        // roomsEntred contains id's of rooms\n        uint[] roomsEntred;\n\n        // voted or not\n        // solidity will assigin voted to false as default .. perfectly 🙂 [0 is the default value in struct]\n        bool voted;\n\n    }\n\n    function vote(uint roomId , address voterAddr , address candidateAddr) public returns (bool voted) {\n\n        // check the voter is in the room by comparing the addresses\n\n\n        for (uint i = 0 ; i <= roomsArray[roomId].VotersEntred.length ; i ++ ){\n            if ( votersArray[i].voted == true){\n                revert(\"Voter allready voted\");\n            }\n              if (roomsArray[roomId].VotersEntred[i] == voterAddr){\n\n                  for (uint j = 0 ; j <= roomsArray[roomId].maxCan; j ++){\n\n                      if (candidatesArray[j].candidateAddr == candidateAddr){\n\n                          candidatesArray[j].votesCount ++;\n                          votersArray[i].voted == true;\n                          return true;\n                      }\n\n                  }\n                     revert(\"Candidate is not valid in this room\");\n                }\n                else{\n                    revert(\"Voter is not valid in this room\");\n                }\n        }\n        return false;\n    }\n\n\n    struct Candidate\n    {\n        // roomId\n        uint roomId;\n        // id\n        address candidateAddr;\n        // name\n        string candidateName;\n        // votes\n        uint  votesCount;\n    }\n\n  //add candidate\n\n    function add_candidate(uint roomId  , string memory candidateName) public returns(uint){\n        // check\n        if (roomsArray[roomId].candidatesCount <= roomsArray[roomId].maxCan - 1 ){\n\n            candidatesArray.push(Candidate(roomId , msg.sender , candidateName , 0 ));\n            roomsArray[roomId].candidatesEntred.push(msg.sender);\n            roomsArray[roomId].candidatesCount++;\n        }\n        else{\n            revert(\"Sorry , Its Full Room\");\n        }\n\n\n    }\n\n\n    struct Room{\n        // count for incermental id for voters\n        uint roomId;\n        uint VotersCount ;\n\n        // candidatesEntred\n        address [] candidatesEntred;\n        address [] VotersEntred;\n        uint maxCan;\n        uint candidatesCount;\n\n    }\n    Voter[]  public votersArray;\n    Candidate[] public candidatesArray;\n    Room[]  public roomsArray;\n    uint roomsCount;\n\n\n    //! Solved : Bug at add_room fucntion !  (Copying of type struct VotingRoom.Candidate memory[] memory to storage not yet supported.)\n    function add_room (uint maxCan) public {\n\n        address[] memory voters ;\n        address[] memory candidates;\n        roomsArray.push(Room(roomsCount,0,candidates,voters,maxCan,0));\n\n        roomsCount++;\n    }\n\n\n\n\n    // add voter\n    function\n    add_voter(uint roomId )\n    public {\n        // this we can use to support multible rooms for each voter somehow.\n        uint[] memory roomsEntred;\n\n        // Make instance of voter to push it to votersArray\n        Voter memory voter =  Voter(msg.sender,roomsEntred , false) ;\n\n        votersArray.push(voter);\n        roomsArray[roomId].VotersEntred.push( msg.sender);\n        roomsArray[roomId].VotersCount++;\n    }\n\n    function get_room () public view returns (uint){\n       return roomsArray.length;\n    }\n\n\n\n}\n",
  "sourcePath": "/home/loaii/personal/me/blockchain/eth/contracts/VotingRoom.sol",
  "compiler": {
    "name": "solc",
    "version": "0.5.8+commit.23d335f2.Emscripten.clang"
  },
  "schemaVersion": "3.0.11",
  "updatedAt": "2019-09-07T17:45:28.407Z",
  "devdoc": {
    "methods": {}
  },
  "userdoc": {
    "methods": {}
  }
}